:1000000000308A003D2A00000A108A100A11820777
:1000100043344C3445344134523444344134543400
:1000200041340D340A3400340A108A100A11820750
:100030004C344134423445344C342C342034543420
:1000400069346D3465342C34203453347434613461
:1000500072347434653464342034543469346D3407
:1000600065342C34203444346134743465342C3495
:10007000203441346E3461346C346F34673420344E
:10008000563461346C34753465340D340A340034BC
:100090000A108A100A11820744344134543441341E
:1000A0002C342034543449344D3445342C342034E9
:1000B000543449344D34453452342C34203444348F
:1000C0004134543445342C34203400348E30F7001D
:1000D0002508F8002408F900FA01F808031D7A2819
:1000E0007908F800F9010830F702F808031D7A28AA
:1000F000F70182280310F81B8128F90DF80DF7038A
:100100007A28F8138A110A12A22AF701F801F901D4
:10011000FA01B901BA01BB01BC0138083704360441
:1001200035040319C3282030BD000310B10DB20DF2
:10013000B30DB40DB90DBA0DBB0DBC0D38083C02A2
:10014000031DAC2837083B02031DAC2836083A02D1
:10015000031DAC2835083902031CBD283508B90237
:100160003608031C360FBA023708031C370FBB02D0
:100170003808031C380FBC020314F70DF80DF90DF5
:10018000FA0DBD0B95283930840083130034040820
:10019000A9002808AB00031959292708B40026082C
:1001A000B3002508B2002408B100B801B70120301F
:1001B000B6008230B500310803194B29B900350863
:1001C00003194B29B9070318EC287F30B902031C27
:1001D0004B2903194B29F0288130B90703184B2903
:1001E0003908F700F801F901FA013208BD00BD171E
:1001F0003308BC003408BB001830B900BA013B1CFE
:1002000019293808FA07031C0B29F90A031D0B29C1
:10021000F80A0319BA173708F907031C1229F80A54
:100220000319BA173608B300B3173308F8070318D1
:10023000BA17BA0DF80CF90CFA0CBD0CBC0CBB0CBF
:100240000310B90BFE280130F70703184B29F81BE0
:100250003029BD0DFA0DF90DF80DF70303194B29DF
:10026000BD1F4129FA0A031D4129F90A031D41292D
:10027000F80A031D4129F80CF90CFA0CF70A0319C6
:100280004B293208BA003608BA06BA1F4929F817AE
:100290004F29F8134F29F701F801F901FA017A08FB
:1002A000A7007908A6007808A5007708A400AB0B82
:1002B000CD282708B4002608B3002508B20024087A
:1002C000B1003108B63CB100FA013208B500B217EE
:1002D0000310B20CB30CB40CFA0CF90CF80CF70CBC
:1002E000B10B6829B51F7F29F709F809F909FA093F
:1002F000F70A0319F80A0319F90A0319FA0A7A081E
:10030000A7007908A6007808A5007708A400A71F11
:100310009629A903A916A409A509A609A709A40A4B
:100320000319A50A0319A60A0319A70A3B30B0004E
:100330009A30AF00CA30AE00AD010A30AB002808D9
:100340000319A90A2708B4002608B3002508B2003B
:100350002408B1003008B8002F08B7002E08B600F6
:100360002D08B50085200008A400840A0008A50017
:10037000840A0008A600840A0008A700FD3084074C
:10038000F708031DD629280A2B020319D6292908A4
:100390000319D8290F392B020319D02903180C2A65
:1003A000A91B0C2A291BD8292030072A2030A9058F
:1003B000A91EE729A9122808031DA9037708A90087
:1003C0002D300C1EE12999002908F700A901280801
:1003D0002B02031DF6297708A9002E300C1EEE29EA
:1003E00099002908F7002030A90500303030A91EF7
:1003F000072AA9122808031DA9037708A9002D3090
:100400000C1E002A99002908F700A9013030F707CF
:1004100077080C1E092A99003008B4002F08B30091
:100420002E08B2002D08B100B801B701B6010A309C
:10043000B50085207A08B0007908AF007808AE00D2
:100440007708AD00AB0BA2298A110A12C42A253005
:1004500084008313000803193A2A0230F800F701D8
:10046000F70B302AF80B2F2A9730F700F70B362AB4
:10047000800B2D2A8A110A12D52A840183131F307A
:1004800083058316031787110C3003139900A230DC
:100490009800903083129800831603170908C0391A
:1004A000890003131F129F12003003178800831264
:1004B000870188018901FF3083160313850071309D
:1004C0008F000F0883121F179F1783169F17831221
:1004D0001F14831603170908C039890003131F125C
:1004E0009F120130031788000030F80083120313B5
:1004F0001F08C33978049F00A40124080420A40A1B
:10050000F70077080C1E822A99000B302402031D85
:100510007D2AA40124081420A40AF70077080C1EE1
:100520008F2A99002F302402031D8A2A9F149F18B6
:10053000972A1E08FA0083161E088312A4001E08BC
:10054000A50066287A08A3007908A2007808A1000F
:100550007708A000A40124084820A40AF70077081F
:100560000C1EB02A990019302402031DAB2A8930D1
:1005700084002308A7002208A6002108A50020085F
:10058000A4000230A800C72820300C1EC52A9900FC
:100590000D300C1EC92A99000A300C1ECD2A990074
:1005A0000430A400FA30A500272AA40BD22A962AE8
:0205B0006300E6
:04400E00E22FFF3F5F
:00000001FF
;PIC16F887
