:1000000000308A0004280000840183131F30830518
:1000100083160317871508300313990002309A00DE
:10002000A6309800903083129800831603170908B1
:10003000C039890003131F129F1200300317880074
:100040008312870188018901FF300313A000831602
:1000500003170908C039890003131F129F120030CB
:1000600003178800831203131F109412A012200894
:1000700083168700831220162008831687008312B8
:10008000A0112008831687000130831294000030ED
:10009000831694000108C739083881008312900143
:1000A0000030F8009200003083169200831203178C
:0800B00087018801890163004A
:04400E00F73FFF3F3A
:00000001FF
;PIC16F887
